{
  "contractName": "Latam",
  "abi": [
    {
      "inputs": [],
      "stateMutability": "nonpayable",
      "type": "constructor"
    },
    {
      "anonymous": false,
      "inputs": [
        {
          "indexed": true,
          "internalType": "address",
          "name": "_owner",
          "type": "address"
        },
        {
          "indexed": true,
          "internalType": "address",
          "name": "_spender",
          "type": "address"
        },
        {
          "indexed": false,
          "internalType": "uint256",
          "name": "_value",
          "type": "uint256"
        }
      ],
      "name": "Approval",
      "type": "event"
    },
    {
      "anonymous": false,
      "inputs": [
        {
          "indexed": true,
          "internalType": "address",
          "name": "_from",
          "type": "address"
        },
        {
          "indexed": true,
          "internalType": "address",
          "name": "_to",
          "type": "address"
        },
        {
          "indexed": false,
          "internalType": "uint256",
          "name": "_value",
          "type": "uint256"
        }
      ],
      "name": "Transfer",
      "type": "event"
    },
    {
      "inputs": [
        {
          "internalType": "address",
          "name": "",
          "type": "address"
        },
        {
          "internalType": "address",
          "name": "",
          "type": "address"
        }
      ],
      "name": "allowance",
      "outputs": [
        {
          "internalType": "uint256",
          "name": "",
          "type": "uint256"
        }
      ],
      "stateMutability": "view",
      "type": "function",
      "constant": true
    },
    {
      "inputs": [
        {
          "internalType": "address",
          "name": "",
          "type": "address"
        }
      ],
      "name": "balanceOf",
      "outputs": [
        {
          "internalType": "uint256",
          "name": "",
          "type": "uint256"
        }
      ],
      "stateMutability": "view",
      "type": "function",
      "constant": true
    },
    {
      "inputs": [],
      "name": "decimals",
      "outputs": [
        {
          "internalType": "uint8",
          "name": "",
          "type": "uint8"
        }
      ],
      "stateMutability": "view",
      "type": "function",
      "constant": true
    },
    {
      "inputs": [],
      "name": "name",
      "outputs": [
        {
          "internalType": "string",
          "name": "",
          "type": "string"
        }
      ],
      "stateMutability": "view",
      "type": "function",
      "constant": true
    },
    {
      "inputs": [],
      "name": "symbol",
      "outputs": [
        {
          "internalType": "string",
          "name": "",
          "type": "string"
        }
      ],
      "stateMutability": "view",
      "type": "function",
      "constant": true
    },
    {
      "inputs": [],
      "name": "totalSupply",
      "outputs": [
        {
          "internalType": "uint256",
          "name": "",
          "type": "uint256"
        }
      ],
      "stateMutability": "view",
      "type": "function",
      "constant": true
    },
    {
      "inputs": [
        {
          "internalType": "address",
          "name": "_spender",
          "type": "address"
        },
        {
          "internalType": "uint256",
          "name": "_value",
          "type": "uint256"
        }
      ],
      "name": "aprove",
      "outputs": [
        {
          "internalType": "bool",
          "name": "success",
          "type": "bool"
        }
      ],
      "stateMutability": "nonpayable",
      "type": "function"
    },
    {
      "inputs": [
        {
          "internalType": "address",
          "name": "_to",
          "type": "address"
        },
        {
          "internalType": "uint256",
          "name": "_value",
          "type": "uint256"
        }
      ],
      "name": "transfer",
      "outputs": [
        {
          "internalType": "bool",
          "name": "success",
          "type": "bool"
        }
      ],
      "stateMutability": "nonpayable",
      "type": "function"
    },
    {
      "inputs": [
        {
          "internalType": "address",
          "name": "_from",
          "type": "address"
        },
        {
          "internalType": "address",
          "name": "_to",
          "type": "address"
        },
        {
          "internalType": "uint256",
          "name": "_value",
          "type": "uint256"
        }
      ],
      "name": "transerFrom",
      "outputs": [
        {
          "internalType": "bool",
          "name": "succes",
          "type": "bool"
        }
      ],
      "stateMutability": "nonpayable",
      "type": "function"
    }
  ],
  "bytecode": "0x60806040526040518060400160405280600b81526020017f4c6174616d20546f6b656e000000000000000000000000000000000000000000815250600090816200004a919062000389565b506040518060400160405280600381526020017f4c544d00000000000000000000000000000000000000000000000000000000008152506001908162000091919062000389565b50620f42406002556002600360006101000a81548160ff021916908360ff160217905550348015620000c257600080fd5b50600254600460003373ffffffffffffffffffffffffffffffffffffffff1673ffffffffffffffffffffffffffffffffffffffff1681526020019081526020016000208190555062000470565b600081519050919050565b7f4e487b7100000000000000000000000000000000000000000000000000000000600052604160045260246000fd5b7f4e487b7100000000000000000000000000000000000000000000000000000000600052602260045260246000fd5b600060028204905060018216806200019157607f821691505b602082108103620001a757620001a662000149565b5b50919050565b60008190508160005260206000209050919050565b60006020601f8301049050919050565b600082821b905092915050565b600060088302620002117fffffffffffffffffffffffffffffffffffffffffffffffffffffffffffffffff82620001d2565b6200021d8683620001d2565b95508019841693508086168417925050509392505050565b6000819050919050565b6000819050919050565b60006200026a620002646200025e8462000235565b6200023f565b62000235565b9050919050565b6000819050919050565b620002868362000249565b6200029e620002958262000271565b848454620001df565b825550505050565b600090565b620002b5620002a6565b620002c28184846200027b565b505050565b5b81811015620002ea57620002de600082620002ab565b600181019050620002c8565b5050565b601f82111562000339576200030381620001ad565b6200030e84620001c2565b810160208510156200031e578190505b620003366200032d85620001c2565b830182620002c7565b50505b505050565b600082821c905092915050565b60006200035e600019846008026200033e565b1980831691505092915050565b60006200037983836200034b565b9150826002028217905092915050565b62000394826200010f565b67ffffffffffffffff811115620003b057620003af6200011a565b5b620003bc825462000178565b620003c9828285620002ee565b600060209050601f831160018114620004015760008415620003ec578287015190505b620003f885826200036b565b86555062000468565b601f1984166200041186620001ad565b60005b828110156200043b5784890151825560018201915060208501945060208101905062000414565b868310156200045b578489015162000457601f8916826200034b565b8355505b6001600288020188555050505b505050505050565b610c6280620004806000396000f3fe608060405234801561001057600080fd5b50600436106100935760003560e01c806370a082311161006657806370a082311461012257806395d89b4114610152578063a9059cbb14610170578063dd62ed3e146101a0578063f0b7305a146101d057610093565b806306fdde031461009857806318160ddd146100b6578063313ce567146100d45780635b5f8b88146100f2575b600080fd5b6100a0610200565b6040516100ad91906108e3565b60405180910390f35b6100be61028e565b6040516100cb919061091e565b60405180910390f35b6100dc610294565b6040516100e99190610955565b60405180910390f35b61010c600480360381019061010791906109ff565b6102a7565b6040516101199190610a6d565b60405180910390f35b61013c60048036038101906101379190610a88565b61052d565b604051610149919061091e565b60405180910390f35b61015a610545565b60405161016791906108e3565b60405180910390f35b61018a60048036038101906101859190610ab5565b6105d3565b6040516101979190610a6d565b60405180910390f35b6101ba60048036038101906101b59190610af5565b61073c565b6040516101c7919061091e565b60405180910390f35b6101ea60048036038101906101e59190610ab5565b610761565b6040516101f79190610a6d565b60405180910390f35b6000805461020d90610b64565b80601f016020809104026020016040519081016040528092919081815260200182805461023990610b64565b80156102865780601f1061025b57610100808354040283529160200191610286565b820191906000526020600020905b81548152906001019060200180831161026957829003601f168201915b505050505081565b60025481565b600360009054906101000a900460ff1681565b6000600460008573ffffffffffffffffffffffffffffffffffffffff1673ffffffffffffffffffffffffffffffffffffffff168152602001908152602001600020548211156102f557600080fd5b600560008573ffffffffffffffffffffffffffffffffffffffff1673ffffffffffffffffffffffffffffffffffffffff16815260200190815260200160002060003373ffffffffffffffffffffffffffffffffffffffff1673ffffffffffffffffffffffffffffffffffffffff1681526020019081526020016000205482101561037e57600080fd5b81600460008573ffffffffffffffffffffffffffffffffffffffff1673ffffffffffffffffffffffffffffffffffffffff16815260200190815260200160002060008282546103cd9190610bc4565b9250508190555081600460008673ffffffffffffffffffffffffffffffffffffffff1673ffffffffffffffffffffffffffffffffffffffff16815260200190815260200160002060008282546104239190610bf8565b9250508190555081600560003373ffffffffffffffffffffffffffffffffffffffff1673ffffffffffffffffffffffffffffffffffffffff16815260200190815260200160002060008673ffffffffffffffffffffffffffffffffffffffff1673ffffffffffffffffffffffffffffffffffffffff16815260200190815260200160002060008282546104b69190610bf8565b925050819055508273ffffffffffffffffffffffffffffffffffffffff168473ffffffffffffffffffffffffffffffffffffffff167fddf252ad1be2c89b69c2b068fc378daa952ba7f163c4a11628f55a4df523b3ef8460405161051a919061091e565b60405180910390a3600190509392505050565b60046020528060005260406000206000915090505481565b6001805461055290610b64565b80601f016020809104026020016040519081016040528092919081815260200182805461057e90610b64565b80156105cb5780601f106105a0576101008083540402835291602001916105cb565b820191906000526020600020905b8154815290600101906020018083116105ae57829003601f168201915b505050505081565b600081600460003373ffffffffffffffffffffffffffffffffffffffff1673ffffffffffffffffffffffffffffffffffffffff16815260200190815260200160002054101561062157600080fd5b81600460003373ffffffffffffffffffffffffffffffffffffffff1673ffffffffffffffffffffffffffffffffffffffff16815260200190815260200160002060008282546106709190610bf8565b9250508190555081600460008573ffffffffffffffffffffffffffffffffffffffff1673ffffffffffffffffffffffffffffffffffffffff16815260200190815260200160002060008282546106c69190610bc4565b925050819055508273ffffffffffffffffffffffffffffffffffffffff163373ffffffffffffffffffffffffffffffffffffffff167fddf252ad1be2c89b69c2b068fc378daa952ba7f163c4a11628f55a4df523b3ef8460405161072a919061091e565b60405180910390a36001905092915050565b6005602052816000526040600020602052806000526040600020600091509150505481565b600081600560003373ffffffffffffffffffffffffffffffffffffffff1673ffffffffffffffffffffffffffffffffffffffff16815260200190815260200160002060008573ffffffffffffffffffffffffffffffffffffffff1673ffffffffffffffffffffffffffffffffffffffff168152602001908152602001600020819055508273ffffffffffffffffffffffffffffffffffffffff163373ffffffffffffffffffffffffffffffffffffffff167f8c5be1e5ebec7d5bd14f71427d1e84f3dd0314c0f7b2291e5b200ac8c7c3b92584604051610841919061091e565b60405180910390a36001905092915050565b600081519050919050565b600082825260208201905092915050565b60005b8381101561088d578082015181840152602081019050610872565b60008484015250505050565b6000601f19601f8301169050919050565b60006108b582610853565b6108bf818561085e565b93506108cf81856020860161086f565b6108d881610899565b840191505092915050565b600060208201905081810360008301526108fd81846108aa565b905092915050565b6000819050919050565b61091881610905565b82525050565b6000602082019050610933600083018461090f565b92915050565b600060ff82169050919050565b61094f81610939565b82525050565b600060208201905061096a6000830184610946565b92915050565b600080fd5b600073ffffffffffffffffffffffffffffffffffffffff82169050919050565b60006109a082610975565b9050919050565b6109b081610995565b81146109bb57600080fd5b50565b6000813590506109cd816109a7565b92915050565b6109dc81610905565b81146109e757600080fd5b50565b6000813590506109f9816109d3565b92915050565b600080600060608486031215610a1857610a17610970565b5b6000610a26868287016109be565b9350506020610a37868287016109be565b9250506040610a48868287016109ea565b9150509250925092565b60008115159050919050565b610a6781610a52565b82525050565b6000602082019050610a826000830184610a5e565b92915050565b600060208284031215610a9e57610a9d610970565b5b6000610aac848285016109be565b91505092915050565b60008060408385031215610acc57610acb610970565b5b6000610ada858286016109be565b9250506020610aeb858286016109ea565b9150509250929050565b60008060408385031215610b0c57610b0b610970565b5b6000610b1a858286016109be565b9250506020610b2b858286016109be565b9150509250929050565b7f4e487b7100000000000000000000000000000000000000000000000000000000600052602260045260246000fd5b60006002820490506001821680610b7c57607f821691505b602082108103610b8f57610b8e610b35565b5b50919050565b7f4e487b7100000000000000000000000000000000000000000000000000000000600052601160045260246000fd5b6000610bcf82610905565b9150610bda83610905565b9250828201905080821115610bf257610bf1610b95565b5b92915050565b6000610c0382610905565b9150610c0e83610905565b9250828203905081811115610c2657610c25610b95565b5b9291505056fea2646970667358221220740ea852c9be4df2f7f3fc3365bca7cb29059299e8f6246d663ab677174c231a64736f6c63430008110033",
  "immutableReferences": {},
  "source": "pragma solidity >=0.5.0;\n\n\ncontract Latam{\n    string public name = \"Latam Token\";\n    string public symbol = \"LTM\";\n    uint256 public totalSupply = 1000000;\n    uint8 public decimals = 2;\n\n    event Transfer(\n        address indexed _from,\n        address indexed _to,\n        uint _value\n    );\n\n    event Approval(\n        address indexed _owner,\n        address indexed _spender,\n        uint _value\n    );\n\n    mapping(address => uint256) public balanceOf;\n        mapping(address => mapping(address => uint256)) public allowance;\n\n    constructor () public {\n        balanceOf[msg.sender] = totalSupply;\n    }\n\n    function aprove(address _spender, uint _value) public returns (bool success){\n        allowance[msg.sender][_spender] = _value;\n        emit Approval(msg.sender, _spender, _value);\n        return true;\n    }\n\n    function transfer(address _to, uint _value) public returns(bool success) {\n        //Ve si el valor del sender es mayor a la cantidad a transferir,\n        // resta el valor al balance del sender y lo suma al balance del que recibe.\n        require(balanceOf[msg.sender] >= _value);\n        balanceOf[msg.sender] -= _value;\n        balanceOf[_to] += _value;\n       emit Transfer(msg.sender, _to, _value);\n       return true;\n    }\n\n    function transerFrom(address _from, address _to, uint256 _value) public returns(bool succes){\n        require(_value <= balanceOf[_from]);\n        require(_value >= allowance[_from][msg.sender]);\n        balanceOf[_to]+= _value;\n        balanceOf[_from] -= _value;\n        allowance[msg.sender][_from] -= _value;\n        emit Transfer(_from, _to, _value);\n        return true;\n    }\n}",
  "sourcePath": "/Users/LucaBarnabo_1/Desktop/MALBEC SOFTWARE/Dapp/defi-staking-app-starter-main/DefiStaking/src/contracts/Latam.sol",
  "compiler": {
    "name": "solc",
    "version": "0.8.17+commit.8df45f5f.Emscripten.clang"
  },
  "schemaVersion": "3.4.10",
  "updatedAt": "2022-10-31T23:40:33.336Z",
  "networkType": "ethereum",
  "devdoc": {
    "kind": "dev",
    "methods": {},
    "version": 1
  },
  "userdoc": {
    "kind": "user",
    "methods": {},
    "version": 1
  }
}